9999911144477735VINICIUS ALVES FONSECA        SPSAO PAULO                     VFONSECA@EXAMPLE.COM          9123456123
2222200000000192VINICIUS ALVES FONSECA        SPSAO PAULO                     VFONSECA@EXAMPLE.COM          9123456123
3333300000000191                              SPSAO PAULO                     VFONSECA@EXAMPLE.COM          9123456123
4444400000000191VINICIUS ALVES FONSECA        WRSAO PAULO                     VFONSECA@EXAMPLE.COM          9123456123
5555500000000191VINICIUS ALVES FONSECA        SP                              VFONSECA@EXAMPLE.COM          9123456123
6666600000000191VINICIUS ALVES FONSECA        SPSAO PAULO                                                   9123456123
1111100000000191VINICIUS ALVES FONSECA        SPSAO PAULO                     VFONSECA@EXAMPLE.COM          9123456123
2222200000000192VINICIUS ALVES FONSECA        SPSAO PAULO                     VFONSECA@EXAMPLE.COM          9123456123
3333300000000191                              SPSAO PAULO                     VFONSECA@EXAMPLE.COM          9123456123
4444400000000191VINICIUS ALVES FONSECA        WRSAO PAULO                     VFONSECA@EXAMPLE.COM          9123456123
5555500000000191VINICIUS ALVES FONSECA        SP                              VFONSECA@EXAMPLE.COM          9123456123
6666600000000191VINICIUS ALVES FONSECA        SPSAO PAULO                                                   9123456123
1111100000000191VINICIUS ALVES FONSECA        SPSAO PAULO                     VFONSECA@EXAMPLE.COM          9123456123
2222200000000192VINICIUS ALVES FONSECA        SPSAO PAULO                     VFONSECA@EXAMPLE.COM          9123456123
3333300000000191                              SPSAO PAULO                     VFONSECA@EXAMPLE.COM          9123456123
4444400000000191VINICIUS ALVES FONSECA        WRSAO PAULO                     VFONSECA@EXAMPLE.COM          9123456123
5555500000000191VINICIUS ALVES FONSECA        SP                              VFONSECA@EXAMPLE.COM          9123456123
6666600000000191VINICIUS ALVES FONSECA        SPSAO PAULO                                                   9123456123
1111100000000191VINICIUS ALVES FONSECA        SPSAO PAULO                     VFONSECA@EXAMPLE.COM          9123456123
2222200000000192VINICIUS ALVES FONSECA        SPSAO PAULO                     VFONSECA@EXAMPLE.COM          9123456123
3333300000000191                              SPSAO PAULO                     VFONSECA@EXAMPLE.COM          9123456123
4444400000000191VINICIUS ALVES FONSECA        WRSAO PAULO                     VFONSECA@EXAMPLE.COM          9123456123
5555500000000191VINICIUS ALVES FONSECA        SP                              VFONSECA@EXAMPLE.COM          9123456123
6666600000000191VINICIUS ALVES FONSECA        SPSAO PAULO                                                   9123456123
1111100000000191VINICIUS ALVES FONSECA        SPSAO PAULO                     VFONSECA@EXAMPLE.COM          9123456123
2222200000000192VINICIUS ALVES FONSECA        SPSAO PAULO                     VFONSECA@EXAMPLE.COM          9123456123
3333300000000191                              SPSAO PAULO                     VFONSECA@EXAMPLE.COM          9123456123
4444400000000191VINICIUS ALVES FONSECA        WRSAO PAULO                     VFONSECA@EXAMPLE.COM          9123456123
5555500000000191VINICIUS ALVES FONSECA        SP                              VFONSECA@EXAMPLE.COM          9123456123
6666600000000191VINICIUS ALVES FONSECA        SPSAO PAULO                                                   9123456123
1111100000000191VINICIUS ALVES FONSECA        SPSAO PAULO                     VFONSECA@EXAMPLE.COM          9123456123
2222200000000192VINICIUS ALVES FONSECA        SPSAO PAULO                     VFONSECA@EXAMPLE.COM          9123456123
3333300000000191                              SPSAO PAULO                     VFONSECA@EXAMPLE.COM          9123456123
4444400000000191VINICIUS ALVES FONSECA        WRSAO PAULO                     VFONSECA@EXAMPLE.COM          9123456123
5555500000000191VINICIUS ALVES FONSECA        SP                              VFONSECA@EXAMPLE.COM          9123456123
6666600000000191VINICIUS ALVES FONSECA        SPSAO PAULO                                                   9123456123
1111100000000191VINICIUS ALVES FONSECA        SPSAO PAULO                     VFONSECA@EXAMPLE.COM          9123456123
2222200000000192VINICIUS ALVES FONSECA        SPSAO PAULO                     VFONSECA@EXAMPLE.COM          9123456123
3333300000000191                              SPSAO PAULO                     VFONSECA@EXAMPLE.COM          9123456123
4444400000000191VINICIUS ALVES FONSECA        WRSAO PAULO                     VFONSECA@EXAMPLE.COM          9123456123
5555500000000191VINICIUS ALVES FONSECA        SP                              VFONSECA@EXAMPLE.COM          9123456123
6666600000000191VINICIUS ALVES FONSECA        SPSAO PAULO                                                   9123456123
6666600000000191VINICIUS ALVES FONSECA        SPSAO PAULO                                                   9123456123
6666600000000191VINICIUS ALVES FONSECA        SPSAO PAULO                                                   9123456123
6666600000000191VINICIUS ALVES FONSECA        SPSAO PAULO                                                   9123456123
6666600000000191VINICIUS ALVES FONSECA        SPSAO PAULO                                                   9123456123
6666600000000191VINICIUS ALVES FONSECA        SPSAO PAULO                                                   9123456123
6666600000000191VINICIUS ALVES FONSECA        SPSAO PAULO                                                   9123456123
6666600000000191VINICIUS ALVES FONSECA        SPSAO PAULO                                                   9123456123
6666600000000191VINICIUS ALVES FONSECA        SPSAO PAULO                                                   9123456123
6666600000000191VINICIUS ALVES FONSECA        SPSAO PAULO                                                   9123456123
6666600000000191VINICIUS ALVES FONSECA        SPSAO PAULO                                                   9123456123
6666600000000191VINICIUS ALVES FONSECA        SPSAO PAULO                                                   9123456123
6666600000000191VINICIUS ALVES FONSECA        SPSAO PAULO                                                   9123456123
6666600000000191VINICIUS ALVES FONSECA        SPSAO PAULO                                                   9123456123
