99999111444777VINICIUS ALVES FONSECA        SPSAO PAULO                     VFONSECA@EXAMPLE.COM          9123456123
11111000000001VINICIUS ALVES FONSECA        SPSAO PAULO                     VFONSECA@EXAMPLE.COM          9123456123
11111000000001VINICIUS ALVES FONSECA        SPSAO PAULO                     VFONSECA@EXAMPLE.COM          9123456123
11111000000001VINICIUS ALVES FONSECA        SPSAO PAULO                     VFONSECA@EXAMPLE.COM          9123456123
11111000000001VINICIUS ALVES FONSECA        SPSAO PAULO                     VFONSECA@EXAMPLE.COM          9123456123
11111000000001VINICIUS ALVES FONSECA        SPSAO PAULO                     VFONSECA@EXAMPLE.COM          9123456123
11111000000001VINICIUS ALVES FONSECA        SPSAO PAULO                     VFONSECA@EXAMPLE.COM          9123456123
