111111VINICIUS ALVES FONSECA        00030000000
222222VINICIUS ALVES FONSECA        00030000000
333333VINICIUS ALVES FONSECA        00030000000
444444VINICIUS ALVES FONSECA        00030000000
111111VINICIUS ALVES FONSECA        00030000000
222222VINICIUS ALVES FONSECA        00030000000
333333VINICIUS ALVES FONSECA        00030000000
444444VINICIUS ALVES FONSECA        00030000000
111111VINICIUS ALVES FONSECA        00030000000
222222VINICIUS ALVES FONSECA        00030000000
333333VINICIUS ALVES FONSECA        00030000000
444444VINICIUS ALVES FONSECA        00030000000
111111VINICIUS ALVES FONSECA        00030000000
222222VINICIUS ALVES FONSECA        00030000000
333333VINICIUS ALVES FONSECA        00030000000
444444VINICIUS ALVES FONSECA        00030000000
111111VINICIUS ALVES FONSECA        00030000000
222222VINICIUS ALVES FONSECA        00030000000
333333VINICIUS ALVES FONSECA        00030000000
444444VINICIUS ALVES FONSECA        00030000000
111111VINICIUS ALVES FONSECA        00030000000
222222VINICIUS ALVES FONSECA        00030000000
333333VINICIUS ALVES FONSECA        00030000000
444444VINICIUS ALVES FONSECA        00030000000
111111VINICIUS ALVES FONSECA        00030000000
222222VINICIUS ALVES FONSECA        00030000000
333333VINICIUS ALVES FONSECA        00030000000
444444VINICIUS ALVES FONSECA        00030000000
111111VINICIUS ALVES FONSECA        00030000000
222222VINICIUS ALVES FONSECA        00030000000
333333VINICIUS ALVES FONSECA        00030000000
444444VINICIUS ALVES FONSECA        00030000000
111111VINICIUS ALVES FONSECA        00030000000
222222VINICIUS ALVES FONSECA        00030000000
333333VINICIUS ALVES FONSECA        00030000000
444444VINICIUS ALVES FONSECA        00030000000
111111VINICIUS ALVES FONSECA        00030000000
222222VINICIUS ALVES FONSECA        00030000000
333333VINICIUS ALVES FONSECA        00030000000
444444VINICIUS ALVES FONSECA        00030000000
