01111111VINICIUS ALVES FONSECA        00030000000
01222222VINICIUS ALVES FONSECA        00030000000
01333333VINICIUS ALVES FONSECA        00030000000
01444444VINICIUS ALVES FONSECA        00030000000
02555555VINICIUS ALVES FONSECA        00030000000
02666666VINICIUS ALVES FONSECA        00030000000
02777777VINICIUS ALVES FONSECA        00030000000
02888888VINICIUS ALVES FONSECA        00030000000
01111111VINICIUS ALVES FONSECA        00030000000
01222222VINICIUS ALVES FONSECA        00030000000
01333333VINICIUS ALVES FONSECA        00030000000
01444444VINICIUS ALVES FONSECA        00030000000
02555555VINICIUS ALVES FONSECA        00030000000
02666666VINICIUS ALVES FONSECA        00030000000
02777777VINICIUS ALVES FONSECA        00030000000
02888888VINICIUS ALVES FONSECA        00030000000
01111111VINICIUS ALVES FONSECA        00030000000
01222222VINICIUS ALVES FONSECA        00030000000
01333333VINICIUS ALVES FONSECA        00030000000
01444444VINICIUS ALVES FONSECA        00030000000
02555555VINICIUS ALVES FONSECA        00030000000
02666666VINICIUS ALVES FONSECA        00030000000
02777777VINICIUS ALVES FONSECA        00030000000
02888888VINICIUS ALVES FONSECA        00030000000
01111111VINICIUS ALVES FONSECA        00030000000
01222222VINICIUS ALVES FONSECA        00030000000
01333333VINICIUS ALVES FONSECA        00030000000
01444444VINICIUS ALVES FONSECA        00030000000
02555555VINICIUS ALVES FONSECA        00030000000
02666666VINICIUS ALVES FONSECA        00030000000
02777777VINICIUS ALVES FONSECA        00030000000
02888888VINICIUS ALVES FONSECA        00030000000
01111111VINICIUS ALVES FONSECA        00030000000
01222222VINICIUS ALVES FONSECA        00030000000
01333333VINICIUS ALVES FONSECA        00030000000
01444444VINICIUS ALVES FONSECA        00030000000
02555555VINICIUS ALVES FONSECA        00030000000
02666666VINICIUS ALVES FONSECA        00030000000
02777777VINICIUS ALVES FONSECA        00030000000
02888888VINICIUS ALVES FONSECA        00030000000
01111111VINICIUS ALVES FONSECA        00030000000
01222222VINICIUS ALVES FONSECA        00030000000
01333333VINICIUS ALVES FONSECA        00030000000
01444444VINICIUS ALVES FONSECA        00030000000
02555555VINICIUS ALVES FONSECA        00030000000
02666666VINICIUS ALVES FONSECA        00030000000
02777777VINICIUS ALVES FONSECA        00030000000
02888888VINICIUS ALVES FONSECA        00030000000
01111111VINICIUS ALVES FONSECA        00030000000
01222222VINICIUS ALVES FONSECA        00030000000
01333333VINICIUS ALVES FONSECA        00030000000
01444444VINICIUS ALVES FONSECA        00030000000
02555555VINICIUS ALVES FONSECA        00030000000
02666666VINICIUS ALVES FONSECA        00030000000
02777777VINICIUS ALVES FONSECA        00030000000
02888888VINICIUS ALVES FONSECA        00030000000
01111111VINICIUS ALVES FONSECA        00030000000
01222222VINICIUS ALVES FONSECA        00030000000
01333333VINICIUS ALVES FONSECA        00030000000
01444444VINICIUS ALVES FONSECA        00030000000
02555555VINICIUS ALVES FONSECA        00030000000
02666666VINICIUS ALVES FONSECA        00030000000
02777777VINICIUS ALVES FONSECA        00030000000
02888888VINICIUS ALVES FONSECA        00030000000
01111111VINICIUS ALVES FONSECA        00030000000
01222222VINICIUS ALVES FONSECA        00030000000
01333333VINICIUS ALVES FONSECA        00030000000
01444444VINICIUS ALVES FONSECA        00030000000
02555555VINICIUS ALVES FONSECA        00030000000
02666666VINICIUS ALVES FONSECA        00030000000
02777777VINICIUS ALVES FONSECA        00030000000
02888888VINICIUS ALVES FONSECA        00030000000
01111111VINICIUS ALVES FONSECA        00030000000
01222222VINICIUS ALVES FONSECA        00030000000
01333333VINICIUS ALVES FONSECA        00030000000
01444444VINICIUS ALVES FONSECA        00030000000
02555555VINICIUS ALVES FONSECA        00030000000
02666666VINICIUS ALVES FONSECA        00030000000
02777777VINICIUS ALVES FONSECA        00030000000
02888888VINICIUS ALVES FONSECA        00030000000